:0400000023EF37F0C3
:106DFA00070EC16E010E926E956A949094929494C5
:106E0A001200100E946E800EC76E300EC66EF26AB5
:106E1A009E6A1200100E946E800EC76E300EC66EF9
:106E2A00F26A9E6A12000250C96E9EA6FED79E960C
:106E3A0001C0C9FF9EA6FED79E96120000EE3FF043
:106E4A002D0EEE6AE806FDE1000EF86E0001B0EFC5
:106E5A0037F08390026A030E016E48EC37F08380A4
:106E6A00026A030E016E56EF37F0809403C001F0F8
:106E7A0004C002F018EC37F0808405C001F006C0A7
:106E8A0002F018EF37F00DD0036A032A180E0364D4
:106E9A00FCD7036A032A060E0364FCD70106D8A0AE
:106EAA00020602500110D8B41200EED70DD0036AC0
:106EBA00032AF90E0364FCD7036A032A4A0E036401
:106ECA00FCD70106D8A0020602500110D8B412005D
:106EDA00EED701C0C9FF9EA6FED79E96C96A9EA696
:106EEA00FED79E96C9CF05F0C96A9EA6FED79E9682
:106EFA0005C003F0046A050ED89003360436E82E5E
:106F0A00FBD7C938E8461F0B0310016E0450026E06
:106F1A00120080B013D0026AD00E016E6EEC37F008
:106F2A0001C00AF002C00BF0026A900E016E6EEC0C
:106F3A0037F001C00CF002C00DF004D00A680B68EB
:106F4A000C680D680AC006F00BC007F00CC008F008
:106F5A000DC009F01200FDEC36F013EC3AF05DECCE
:106F6A0038F0936AF00E816E026A640E016E5BEC71
:106F7A0037F0936A0F0E816E026A640E016E5BEC43
:106F8A0037F0026A050E016E5BEC37F080B0F9D774
:106F9A00C7EC38F00009F5E0FAEC37F0F2D7096AE5
:106FAA000A6A0B6A0C6A01A008D005500926065025
:106FBA000A2207500B2208500C22D89005360636B2
:106FCA0007360836D89004320332023201320450AE
:106FDA00011002100310E7E109C001F00AC002F033
:106FEA000BC003F00CC004F012000FEC37F08092D3
:106FFA005F6601D012005F06020E046E100E036E69
:10700A006050040DF3503F0FD96EDA6ADECF05F0F7
:10701A00DDCF06F03AEC37F0020E046E120E036E64
:10702A006050040DF350410FD96EDA6ADECF05F0D5
:10703A00DDCF06F03AEC37F0020E046E110E036E45
:10704A006050040DF3503F0F26D83AEC37F0020E89
:10705A00046E130E036E6050040DF350410F1BD8DB
:10706A003AEC37F0070E606002D0602A01D0606AFD
:10707A008094020E026E016E18EC37F08084096A61
:10708A00000E026A016A18EC37F0092A0F0E096429
:10709A00F7D780820F0CD96EDA6ADECF07F0DDCF20
:1070AA0008F0030E0724056E000E0820066E120073
:1070BA008092020E046E100E036E000E066A056AB6
:1070CA003AEC37F0020E046E120E036E000E066AD8
:1070DA00056A3AEC37F0020E046E110E036E066A68
:1070EA00EF0E056E3AEC37F0020E046E130E036EC5
:1070FA00010E066E3F0E056E3AEC37F0020E046E74
:10710A00000E036A066A056A3AEC37F0020E34D8B2
:10711A003AEC37F08094020E026E016E18EC37F0EA
:10712A0080840B6A0B50020DEE0EF324F66EF76A9A
:10713A00770EF7220900F5CF07F00A00F5CF08F01D
:10714A00250E0A6E800E096E07C001F008C002F013
:10715A0018EC37F00906D8A00A060A500910F4E11B
:10716A000B2A070E0B64DED7010E026EF40E016EB7
:10717A005BEC37F080821200046E010E036E066A21
:10718A00056A000C30502C240E6E31502D2027D960
:10719A000EC020F00FC021F010C022F011C023F061
:1071AA0032502E240E6E33502F2019D90EC024F0DF
:1071BA000FC025F010C026F011C027F0060E5F643C
:1071CA0001D0000C06EC37F080983E6A8EEC37F05E
:1071DA003E50040DF350280FD96EDA6A06C0DEFF5E
:1071EA0007C0DEFF08C0DEFF09C0DDFFD906D906E9
:1071FA003E2A040E3E64EAD780883E6A3D6A5DD024
:10720A003D283C6E3D50040DF3CF0EF0020E0E26C3
:10721A000E50280FD96EDA6ADECF0FF0DDCF10F0EC
:10722A00E9D8DECF11F0DDCF12F00F501124136E22
:10723A0010501220146E3C50040DF3CF15F0020EBC
:10724A0015261550280FD96EDA6ADECF16F0DDCF73
:10725A0017F0D7D8DECF18F0DDCF19F01650182462
:10726A001A6E175019201B6E13501A5C14501B58B3
:10727A0023E2C7D8DECF1CF0DECF1DF0DECF1EF032
:10728A00DECF1FF0B7D83C50040DF350280FE16E43
:10729A00E26ADECFE6FFDECFE6FFDECFE6FFDDCF36
:1072AA00E5FFE552E552A6D81CC0DEFF1DC0DEFF91
:1072BA001EC0DEFF1FC0DEFF3D2A040E0E6E0F6ADF
:1072CA003E500E5E000E0F5A3DC010F0116A11506A
:1072DA00800A126E0E50105C0F50800A125890E30A
:1072EA003E2A030E3E648AD720EE30F0DECF0EF03F
:1072FA00DDCF0FF02C500E5E2D500F5A060E0E5C8D
:10730A00000E0F5801E35DD720EE32F0DECF0EF00B
:10731A00DDCF0FF02E500E5E2F500F5A060E0E5C68
:10732A00000E0F5801E34DD7FF0E205C0F0E2158B7
:10733A00000E2258000E235801E343D7FF0E245CA7
:10734A000F0E2558000E2658000E275801E339D78C
:10735A0020C001F021C002F022C003F023C004F0D3
:10736A00F00E056E000E066A076A086AD4EC37F05A
:10737A000D0E01D04DD8E82EFDD76150040DF35003
:10738A003F0FD96EDA6A01C0DEFF02C0DDFF24C0FA
:10739A0001F025C002F026C003F027C004F0400E19
:1073AA00056E010E066E000E076A086AD4EC37F005
:1073BA000D0E01D02DD8E82EFDD76150040DF350E3
:1073CA00410FD96EDA6A01C0DEFF02C0DDFF070E87
:1073DA00616002D0612A01D0616A5F2A010C0F6ED6
:1073EA00106AD8B0102A116AD890113210320F32AE
:1073FA000E3212003D50040DF350280FD96EDA6A8E
:10740A0012003C50040DF350280FD96EDA6A1200AC
:10741A00D890043203320232013212000FEC37F0F4
:10742A0080922EEC37F0046A036A066A010E056E32
:10743A003AEC37F0026A0A0E016E5BEC37F0010E85
:10744A00046E000E036A066A056A3AEC37F0010E0A
:10745A00046E036E000E066A056A3AEC37F0010EF6
:10746A00046E020E036E310E066E100E056E3AECB5
:10747A0037F0010E046E030E036EE20E066E000E66
:10748A00056A3AEC37F0010E046E100E036E066AB6
:10749A009D0E056E3AEC37F0010E046E110E036E66
:1074AA00066A220E056E3AEC37F0010E046E036A84
:1074BA00066E200E056E3AEC37F0026A140E016E63
:1074CA005BEC37F0010E046E036A310E066E200E75
:1074DA00056E3AEC37F0026A500E016E5BEC37F03B
:1074EA00046A010E036E066E000E056A3AEC37F066
:1074FA00046A020E036E000E066A056A3AEC37F059
:10750A00046A030E036E120E066E300E056E3AEC16
:10751A0037F0046A060E036E000E066A056A3AEC34
:10752A0037F0046A070E036E010E066E056E3AEC1A
:10753A0037F0046A080E036E066E056E3AEC37F0F1
:10754A00046A090E036E000E066A056A3AEC37F001
:10755A00046A0B0E036E000E066A056A3AEC37F0EF
:10756A00046A0C0E036E000E066A056A3AEC37F0DE
:10757A00046A0D0E036E066A180E056E3AEC37F0B1
:10758A00046A120E036E000E066A056A3AEC37F0B8
:10759A00046A130E036E000E066A056A3AEC37F0A7
:1075AA00046A180E036E000E066A056A3AEC37F092
:1075BA00046A190E036E000E066A056A3AEC37F081
:1075CA00020E046E030E036E000E066A056A3AEC9A
:1075DA0037F0020E046E040E036E000E066A056A88
:1075EA003AEC37F0020E046E100E036E000E066AB5
:1075FA00056A3AEC37F0020E046E110E036E066A43
:10760A00EF0E056E3AEC37F0020E046E120E036EA0
:10761A00000E066A056A3AEC37F0020E046E130E83
:10762A00036E010E066E3F0E056E3AEC37F0020E3F
:10763A00046E140E036E000E066A056A3AEC37F001
:10764A00020E046E150E036E000E066A056A3AEC07
:10765A0037F0020E046E160E036E000E066A056AF5
:10766A003AEC37F0020E046E170E036E000E066A2D
:10767A00056A3AEC37F0030E046E036A530E066E7F
:10768A00430E056E3AEC37F0030E046E010E036EDC
:10769A00100E066E210E056E3AEC37F0030E046EDC
:1076AA00020E036E066A030E056E3AEC37F0030EFD
:1076BA00046E036E066A110E056E3AEC37F0030E7D
:1076CA00046E040E036E050E066E0A0E056E3AEC83
:1076DA0037F0030E046E050E036E430E066E420E5D
:1076EA00056E3AEC37F0030E046E060E036E110EA9
:1076FA00066E000E056A3AEC37F0030E046E070EAA
:10770A00036E066A030E056E3AEC37F0030E046E3A
:10771A00080E036E120E066E010E056E3AEC37F075
:10772A00030E046E090E036E050E066E0A0E056E32
:10773A003AEC37F0040E046E036A400E066E270E0A
:10774A00056E3AEC37F0040EC1EC38F03AEC37F03B
:10775A00040E046E020E036E000E066A056A3AEC07
:10776A0037F0040E046E030E036E010E066E3F0E12
:10777A00056E3AEC37F0040E046E036E000E066ACC
:10778A00056A3AEC37F0020E046E000E036A066AC6
:10779A00056A3AEC37F0020EC1EC38F03AEC37F0F1
:1077AA00010E046E036A710E066E200E056E3AEC27
:1077BA0037F0046A070E036E010E066E030E056E9D
:1077CA003AEC37F0026A0A0E016E5BEC37F0046A93
:1077DA00070E036E010E066E130E056E3AEC37F0B5
:1077EA008082120000F8E0071F00E0FF0000FFFFA0
:1077FA00FF071FF800000000000000000000000062
:10780A0000000000000000000000000F080808083F
:10781A000808080000000000000000F8080808082E
:10782A0008080800080808080808080F00000000EF
:10783A000000000008080808080808F8000000000E
:10784A0000000000080808080808080808080808CE
:10785A000808080000000000000000FF0000000007
:10786A0000000000000000183C7E7E7E3C180000EC
:10787A0000000000FFFFFFE7C3818181C3E7FFFF2C
:10788A00FFFFFF00000000000000000000000000F1
:10789A0000000000000000000000000000000000DE
:1078AA0000000000001F050509091010384444446F
:1078BA0038000000001C2222221C08087F08080841
:1078CA0008000000000000000000000000000000A6
:1078DA0000000000031D11131D111111131736703A
:1078EA006000000008085D222222632222225D082D
:1078FA000800000008080808080808FF080808081F
:10790A0008080800000103070F1F3F7F3F1F0F07EA
:10791A0003010000081C2A08080808080808082AA1
:10792A001C080000002424242424242424240000E5
:10793A0024240000001F25454545251D050505058C
:10794A000500000008080808080808FF00000000F1
:10795A000000000000000000000000FF08080808FE
:10796A000808080008080808080808F808080808A5
:10797A0008080800081C2A0808080808080808084F
:10798A0008080000080808080808080F0808080876
:10799A0008080800000000000004027F020400003A
:1079AA0000000000000000000010207F20100000EE
:1079BA0000000000000000000000000000000000BD
:1079CA0000000000000000000000000000000000AD
:1079DA00000000000000000000000000000000009D
:1079EA00000000000000000000000000000000008D
:1079FA00000000000000000000000000000000007D
:107A0A0000000000000010101010101010000018E4
:107A1A001800000012362448000000000000000090
:107A2A00000000000000242424FE484848FE48487C
:107A3A00480000000010385454503018141454549C
:107A4A0038101000000044A4A8A8A8541A2A2A2A08
:107A5A0044000000000030484848506EA4948889C9
:107A6A0076000000606020C00000000000000000F6
:107A7A000000000002040808101010101010080876
:107A8A000402000040201010080808080808101016
:107A9A00204000000000001010D63838D610100020
:107AAA000000000000000010101010FE101010104E
:107ABA00000000000000000000000000000000605C
:107ACA006020C000000000000000007F00000000ED
:107ADA00000000000000000000000000000000603C
:107AEA0060000000000102020404080810102020AF
:107AFA0040400000000018244242424242424224CE
:107B0A001800000000001070101010101010101053
:107B1A007C00000000003C4242420404081020425B
:107B2A007E00000000003C42420418040202424463
:107B3A00380000000000040C14242444447E040489
:107B4A001E00000000007E40404058640202424489
:107B5A003800000000001C2440405864424242247D
:107B6A001800000000007E4444080810101010108D
:107B7A001000000000003C424242241824424242C3
:107B8A003C00000000001824424242261A02022445
:107B9A00380000000000000000181800000000185B
:107BAA0018000000000000000000100000000000A3
:107BBA0010102000000002040810204020100804C1
:107BCA00020000000000000000FE000000FE0000AD
:107BDA0000000000000040201008040204081020E1
:107BEA004000000000003C424262020408080018FB
:107BFA0018000000000038445AAAAAAAAAB44244AB
:107C0A003800000000001010182828243C44424282
:107C1A00E70000000000F8444444784442424244E9
:107C2A00F800000000003E4242808080808042448A
:107C3A00380000000000F8444242424242424244B4
:107C4A00F80000000000FC42484878484840424298
:107C5A00FC0000000000FC42484878484840404088
:107C6A00E000000000003C44448080808E8444444C
:107C7A00380000000000E7424242427E424242424D
:107C8A00E700000000007C101010101010101010F7
:107C9A007C00000000003E080808080808080808D8
:107CAA000888F0000000EE444850705048484444A8
:107CBA00EE0000000000E0404040404040404042AA
:107CCA00FE0000000000EE6C6C6C6C54545454546A
:107CDA00D60000000000C7626252524A4A4A46462B
:107CEA00E20000000000384482828282828282445A
:107CFA00380000000000FC424242427C40404040C2
:107D0A00E0000000000038448282828282B2CA4CBB
:107D1A00380600000000FC4242427C484844444283
:107D2A00E300000000003E424240201804024242A2
:107D3A007C0000000000FE921010101010101010AD
:107D4A00380000000000E7424242424242424242B8
:107D5A003C0000000000E74242442424282818106E
:107D6A00100000000000D692929292AAAA6C444493
:107D7A00440000000000E742242418181824244272
:107D8A00E70000000000EE444428281010101010EC
:107D9A003800000000007E840408081020204242B7
:107DAA00FC0000001E1010101010101010101010FF
:107DBA00101E000000404020201010100808040483
:107DCA0004020200780808080808080808080808D1
:107DDA00087800001C2200000000000000000000DB
:107DEA000000000000000000000000000000000089
:107DFA000000FF006010000000000000000000000A
:107E0A00000000000000000000003C421E22424226
:107E1A003F0000000000C0404040586442424264B3
:107E2A00580000000000000000001C2240404022D0
:107E3A001C0000000000060202021E2242424226E4
:107E4A001B0000000000000000003C427E4040424F
:107E5A003C00000000000F1110107E1010101010CE
:107E6A007C0000000000000000003E444438403C12
:107E7A0042423C000000C04040405C6242424242F2
:107E8A00E7000000000030300000701010101010E1
:107E9A007C00000000000C0C00001C040404040414
:107EAA00044478000000C04040404E4850684844AE
:107EBA00EE000000000070101010101010101010CA
:107ECA007C000000000000000000FE4949494949C1
:107EDA00ED000000000000000000DC624242424265
:107EEA00E70000000000000000003C42424242421B
:107EFA003C000000000000000000D86442424244F6
:107F0A007840E0000000000000001E2242424222A7
:107F1A001E020700000000000000EE322020202090
:107F2A00F80000000000000000003E42403C02420F
:107F3A007C0000000000000010107C1010101010CF
:107F4A000C000000000000000000C6424242424607
:107F5A003B000000000000000000E7422424281033
:107F6A0010000000000000000000D79292AAAA4464
:107F7A00440000000000000000006E2418181824B5
:107F8A0076000000000000000000E74224242818C0
:107F9A001010E0000000000000007E4408101022CB
:107FAA007E00000003040404040408040404040416
:107FBA000403000008080808080808080808080850
:107FCA000808080060101010101008101010101087
:107FDA00106000004C430000000000000000000098
:107FEA000000000000000000000000000000000087
:067FFA0000000000000081
:00000001FF
